{
  "contractName": "DVS",
  "abi": [
    {
      "inputs": [],
      "stateMutability": "nonpayable",
      "type": "constructor"
    },
    {
      "anonymous": false,
      "inputs": [
        {
          "indexed": true,
          "internalType": "uint256",
          "name": "electionId",
          "type": "uint256"
        },
        {
          "indexed": true,
          "internalType": "uint256",
          "name": "candidateId",
          "type": "uint256"
        },
        {
          "indexed": false,
          "internalType": "string",
          "name": "name",
          "type": "string"
        }
      ],
      "name": "CandidateAdded",
      "type": "event"
    },
    {
      "anonymous": false,
      "inputs": [
        {
          "indexed": true,
          "internalType": "uint256",
          "name": "electionId",
          "type": "uint256"
        },
        {
          "indexed": false,
          "internalType": "string",
          "name": "name",
          "type": "string"
        }
      ],
      "name": "ElectionCreated",
      "type": "event"
    },
    {
      "anonymous": false,
      "inputs": [
        {
          "indexed": true,
          "internalType": "uint256",
          "name": "electionId",
          "type": "uint256"
        },
        {
          "indexed": false,
          "internalType": "enum DVS.Phase",
          "name": "newPhase",
          "type": "uint8"
        }
      ],
      "name": "PhaseAdvanced",
      "type": "event"
    },
    {
      "anonymous": false,
      "inputs": [
        {
          "indexed": true,
          "internalType": "uint256",
          "name": "electionId",
          "type": "uint256"
        },
        {
          "indexed": true,
          "internalType": "address",
          "name": "voter",
          "type": "address"
        },
        {
          "indexed": true,
          "internalType": "uint256",
          "name": "candidateId",
          "type": "uint256"
        }
      ],
      "name": "Voted",
      "type": "event"
    },
    {
      "inputs": [],
      "name": "electionCount",
      "outputs": [
        {
          "internalType": "uint256",
          "name": "",
          "type": "uint256"
        }
      ],
      "stateMutability": "view",
      "type": "function",
      "constant": true
    },
    {
      "inputs": [],
      "name": "owner",
      "outputs": [
        {
          "internalType": "address",
          "name": "",
          "type": "address"
        }
      ],
      "stateMutability": "view",
      "type": "function",
      "constant": true
    },
    {
      "inputs": [
        {
          "internalType": "string",
          "name": "_name",
          "type": "string"
        },
        {
          "internalType": "string",
          "name": "_description",
          "type": "string"
        },
        {
          "internalType": "uint256",
          "name": "_startTime",
          "type": "uint256"
        },
        {
          "internalType": "uint256",
          "name": "_endTime",
          "type": "uint256"
        }
      ],
      "name": "createElection",
      "outputs": [
        {
          "internalType": "uint256",
          "name": "",
          "type": "uint256"
        }
      ],
      "stateMutability": "nonpayable",
      "type": "function"
    },
    {
      "inputs": [],
      "name": "getAllElections",
      "outputs": [
        {
          "internalType": "uint256[]",
          "name": "ids",
          "type": "uint256[]"
        },
        {
          "internalType": "string[]",
          "name": "names",
          "type": "string[]"
        },
        {
          "internalType": "uint256[]",
          "name": "phases",
          "type": "uint256[]"
        }
      ],
      "stateMutability": "view",
      "type": "function",
      "constant": true
    },
    {
      "inputs": [
        {
          "internalType": "uint256",
          "name": "_electionId",
          "type": "uint256"
        },
        {
          "internalType": "string",
          "name": "_name",
          "type": "string"
        }
      ],
      "name": "addCandidate",
      "outputs": [],
      "stateMutability": "nonpayable",
      "type": "function"
    },
    {
      "inputs": [
        {
          "internalType": "uint256",
          "name": "_electionId",
          "type": "uint256"
        }
      ],
      "name": "advancePhase",
      "outputs": [],
      "stateMutability": "nonpayable",
      "type": "function"
    },
    {
      "inputs": [
        {
          "internalType": "uint256",
          "name": "_electionId",
          "type": "uint256"
        },
        {
          "internalType": "uint256",
          "name": "_candidateId",
          "type": "uint256"
        }
      ],
      "name": "vote",
      "outputs": [],
      "stateMutability": "nonpayable",
      "type": "function"
    },
    {
      "inputs": [
        {
          "internalType": "uint256",
          "name": "_electionId",
          "type": "uint256"
        }
      ],
      "name": "getCandidates",
      "outputs": [
        {
          "internalType": "uint256[]",
          "name": "ids",
          "type": "uint256[]"
        },
        {
          "internalType": "string[]",
          "name": "names",
          "type": "string[]"
        },
        {
          "internalType": "uint256[]",
          "name": "votes",
          "type": "uint256[]"
        }
      ],
      "stateMutability": "view",
      "type": "function",
      "constant": true
    },
    {
      "inputs": [
        {
          "internalType": "uint256",
          "name": "_electionId",
          "type": "uint256"
        }
      ],
      "name": "getWinners",
      "outputs": [
        {
          "internalType": "uint256[]",
          "name": "",
          "type": "uint256[]"
        }
      ],
      "stateMutability": "view",
      "type": "function",
      "constant": true
    }
  ],
  "bytecode": "0x608060405234801561001057600080fd5b50600080546001600160a01b031916331781556001556114d8806100356000396000f3fe608060405234801561001057600080fd5b50600436106100935760003560e01c80637fd5f268116100665780637fd5f2681461011957806381aaf4ce146101215780638da5cb5b14610134578063997d28301461015f578063b384abef1461016857600080fd5b80631750a3d0146100985780633e39a7a5146100ad5780636b1426a4146100d85780637ad36e84146100f8575b600080fd5b6100ab6100a6366004610f74565b61017b565b005b6100c06100bb366004610fc0565b610363565b6040516100cf93929190611014565b60405180910390f35b6100eb6100e6366004610fc0565b6105e1565b6040516100cf91906110c9565b61010b6101063660046110e3565b610855565b6040519081526020016100cf565b6100c0610993565b6100ab61012f366004610fc0565b610bad565b600054610147906001600160a01b031681565b6040516001600160a01b0390911681526020016100cf565b61010b60015481565b6100ab610176366004611161565b610d63565b6000546001600160a01b031633146101ae5760405162461bcd60e51b81526004016101a590611183565b60405180910390fd5b6000838152600260205260409020600a0154839060ff166101e15760405162461bcd60e51b81526004016101a5906111a7565b8360008060008381526002602081905260409091206005015460ff169081111561020d5761020d6111de565b1461025a5760405162461bcd60e51b815260206004820152601d60248201527f496e76616c696420706861736520666f72207468697320616374696f6e00000060448201526064016101a5565b600086815260026020908152604091829020600681015483516060810185528181528451601f8a018590048502810185019095528885529193909282810191908a908a90819084018382808284376000920182905250938552505050602091820181905283815260078501825260409020825181559082015160018201906102e2908261128d565b506040919091015160029091015560088201805460018101825560009182526020822001829055600683018054916103198361134d565b919050555080887fed8911b3df733b7d5f75724158e54478ea12e30f49c9d31b5261879f5b76586f8989604051610351929190611374565b60405180910390a35050505050505050565b6000818152600260205260409020600a015460609081908190849060ff1661039d5760405162461bcd60e51b81526004016101a5906111a7565b600085815260026020526040902060088101548067ffffffffffffffff8111156103c9576103c96111f4565b6040519080825280602002602001820160405280156103f2578160200160208202803683370190505b5095508067ffffffffffffffff81111561040e5761040e6111f4565b60405190808252806020026020018201604052801561044157816020015b606081526020019060019003908161042c5790505b5094508067ffffffffffffffff81111561045d5761045d6111f4565b604051908082528060200260200182016040528015610486578160200160208202803683370190505b50935060005b818110156105d65760008360080182815481106104ab576104ab6113a3565b906000526020600020015490506000846007016000838152602001908152602001600020905080600001548984815181106104e8576104e86113a3565b6020026020010181815250508060010180546105039061120a565b80601f016020809104026020016040519081016040528092919081815260200182805461052f9061120a565b801561057c5780601f106105515761010080835404028352916020019161057c565b820191906000526020600020905b81548152906001019060200180831161055f57829003601f168201915b5050505050888481518110610593576105936113a3565b602002602001018190525080600201548784815181106105b5576105b56113a3565b602002602001018181525050505080806105ce9061134d565b91505061048c565b505050509193909250565b6000818152600260205260409020600a0154606090829060ff166106175760405162461bcd60e51b81526004016101a5906111a7565b600083815260026020526040902060068101546106665760405162461bcd60e51b815260206004820152600d60248201526c4e6f2063616e6469646174657360981b60448201526064016101a5565b6000805b60088301548110156106e457600083600801828154811061068d5761068d6113a3565b90600052602060002001549050828460070160008381526020019081526020016000206002015411156106d157600081815260078501602052604090206002015492505b50806106dc8161134d565b91505061066a565b506000805b60088401548110156107535782846007016000866008018481548110610711576107116113a3565b906000526020600020015481526020019081526020016000206002015403610741578161073d8161134d565b9250505b8061074b8161134d565b9150506106e9565b5060008167ffffffffffffffff81111561076f5761076f6111f4565b604051908082528060200260200182016040528015610798578160200160208202803683370190505b5090506000805b600886015481101561084657848660070160008860080184815481106107c7576107c76113a3565b906000526020600020015481526020019081526020016000206002015403610834578560080181815481106107fe576107fe6113a3565b906000526020600020015483838151811061081b5761081b6113a3565b6020908102919091010152816108308161134d565b9250505b8061083e8161134d565b91505061079f565b50909550505050505b50919050565b600080546001600160a01b031633146108805760405162461bcd60e51b81526004016101a590611183565b8183106108cf5760405162461bcd60e51b815260206004820152601860248201527f5374617274206d757374206265206265666f726520656e64000000000000000060448201526064016101a5565b600180546000818152600260205260409020818155909181016108f3898b836113b9565b50600281016109038789836113b9565b50600381018590556004810184905560058101805460ff19908116909155600060068301819055600a830180549092166001908117909255815491906109488361134d565b9190505550817f52be7c4e77b4de76b7607d621492061fe13b58597e72dfb5e51ab8f6187ed1418a8a60405161097f929190611374565b60405180910390a250979650505050505050565b606080606060015467ffffffffffffffff8111156109b3576109b36111f4565b6040519080825280602002602001820160405280156109dc578160200160208202803683370190505b50925060015467ffffffffffffffff8111156109fa576109fa6111f4565b604051908082528060200260200182016040528015610a2d57816020015b6060815260200190600190039081610a185790505b50915060015467ffffffffffffffff811115610a4b57610a4b6111f4565b604051908082528060200260200182016040528015610a74578160200160208202803683370190505b50905060005b600154811015610ba757600081815260026020526040902080548551869084908110610aa857610aa86113a3565b602002602001018181525050806001018054610ac39061120a565b80601f0160208091040260200160405190810160405280929190818152602001828054610aef9061120a565b8015610b3c5780601f10610b1157610100808354040283529160200191610b3c565b820191906000526020600020905b815481529060010190602001808311610b1f57829003601f168201915b5050505050848381518110610b5357610b536113a3565b6020908102919091010152600581015460ff166002811115610b7757610b776111de565b838381518110610b8957610b896113a3565b60209081029190910101525080610b9f8161134d565b915050610a7a565b50909192565b6000546001600160a01b03163314610bd75760405162461bcd60e51b81526004016101a590611183565b6000818152600260205260409020600a0154819060ff16610c0a5760405162461bcd60e51b81526004016101a5906111a7565b600082815260026020526040812090600582015460ff166002811115610c3257610c326111de565b03610ca6576000816006015411610c8b5760405162461bcd60e51b815260206004820152601960248201527f4e656564206174206c6561737420312063616e6469646174650000000000000060448201526064016101a5565b6005810180546001919060ff191682805b0217905550610d1d565b6001600582015460ff166002811115610cc157610cc16111de565b03610cdc576005810180546002919060ff1916600183610c9c565b60405162461bcd60e51b8152602060048201526016602482015275115b1958dd1a5bdb88185b1c9958591e48195b99195960521b60448201526064016101a5565b600581015460405184917fa92c850bb09d5afa4a6230f4866fad10264c6fea20047156b39e3e24c5763ad491610d569160ff169061147a565b60405180910390a2505050565b6000828152600260205260409020600a0154829060ff16610d965760405162461bcd60e51b81526004016101a5906111a7565b8260018060008381526002602081905260409091206005015460ff1690811115610dc257610dc26111de565b14610e0f5760405162461bcd60e51b815260206004820152601d60248201527f496e76616c696420706861736520666f72207468697320616374696f6e00000060448201526064016101a5565b6000858152600260209081526040808320338452600981019092529091205460ff1615610e6e5760405162461bcd60e51b815260206004820152600d60248201526c105b1c9958591e481d9bdd1959609a1b60448201526064016101a5565b80600601548510610eb55760405162461bcd60e51b8152602060048201526011602482015270496e76616c69642063616e64696461746560781b60448201526064016101a5565b3360009081526009820160209081526040808320805460ff19166001179055878352600784019091528120600201805491610eef8361134d565b90915550506040518590339088907f1abe610cf2bf87e57dcc1181fcf5ac0934e843d8344ab9eed6e86c799f62585e90600090a4505050505050565b60008083601f840112610f3d57600080fd5b50813567ffffffffffffffff811115610f5557600080fd5b602083019150836020828501011115610f6d57600080fd5b9250929050565b600080600060408486031215610f8957600080fd5b83359250602084013567ffffffffffffffff811115610fa757600080fd5b610fb386828701610f2b565b9497909650939450505050565b600060208284031215610fd257600080fd5b5035919050565b600081518084526020808501945080840160005b8381101561100957815187529582019590820190600101610fed565b509495945050505050565b6060815260006110276060830186610fd9565b6020838203818501528186518084528284019150828160051b8501018389016000805b848110156110a657601f198089860301875283518051808752845b81811015611080578281018b01518882018c01528a01611065565b508681018a0185905297890197601f01909116909401870193509186019160010161104a565b50505086810360408801526110bb8189610fd9565b9a9950505050505050505050565b6020815260006110dc6020830184610fd9565b9392505050565b600080600080600080608087890312156110fc57600080fd5b863567ffffffffffffffff8082111561111457600080fd5b6111208a838b01610f2b565b9098509650602089013591508082111561113957600080fd5b5061114689828a01610f2b565b979a9699509760408101359660609091013595509350505050565b6000806040838503121561117457600080fd5b50508035926020909101359150565b6020808252600a908201526927b7363c9037bbb732b960b11b604082015260600190565b60208082526017908201527f456c656374696f6e20646f6573206e6f74206578697374000000000000000000604082015260600190565b634e487b7160e01b600052602160045260246000fd5b634e487b7160e01b600052604160045260246000fd5b600181811c9082168061121e57607f821691505b60208210810361084f57634e487b7160e01b600052602260045260246000fd5b601f82111561128857600081815260208120601f850160051c810160208610156112655750805b601f850160051c820191505b8181101561128457828155600101611271565b5050505b505050565b815167ffffffffffffffff8111156112a7576112a76111f4565b6112bb816112b5845461120a565b8461123e565b602080601f8311600181146112f057600084156112d85750858301515b600019600386901b1c1916600185901b178555611284565b600085815260208120601f198616915b8281101561131f57888601518255948401946001909101908401611300565b508582101561133d5787850151600019600388901b60f8161c191681555b5050505050600190811b01905550565b60006001820161136d57634e487b7160e01b600052601160045260246000fd5b5060010190565b60208152816020820152818360408301376000818301604090810191909152601f909201601f19160101919050565b634e487b7160e01b600052603260045260246000fd5b67ffffffffffffffff8311156113d1576113d16111f4565b6113e5836113df835461120a565b8361123e565b6000601f84116001811461141957600085156114015750838201355b600019600387901b1c1916600186901b178355611473565b600083815260209020601f19861690835b8281101561144a578685013582556020948501946001909201910161142a565b50868210156114675760001960f88860031b161c19848701351681555b505060018560011b0183555b5050505050565b602081016003831061149c57634e487b7160e01b600052602160045260246000fd5b9190529056fea2646970667358221220c6eaacf4842e8a7a060651596af27f35ec5ddd1690b134fe896b6693cbd1643a64736f6c63430008130033",
  "immutableReferences": {},
  "source": "// SPDX-License-Identifier: MIT\r\npragma solidity ^0.8.19;\r\n\r\n/// @title Decentralized Voting System\r\n/// @notice Supports multiple elections, candidate registration, voting, and results\r\ncontract DVS {\r\n    address public owner;\r\n    uint256 public electionCount;\r\n\r\n    enum Phase { Registration, Voting, Ended }\r\n\r\n    struct Candidate {\r\n        uint256 id;\r\n        string name;\r\n        uint256 voteCount;\r\n    }\r\n\r\n    struct Election {\r\n        uint256 id;\r\n        string name;\r\n        string description;\r\n        uint256 startTime;\r\n        uint256 endTime;\r\n        Phase phase;\r\n        uint256 candidateCount;\r\n        mapping(uint256 => Candidate) candidates;\r\n        uint256[] candidateIds;\r\n        mapping(address => bool) hasVoted;\r\n        bool exists;\r\n    }\r\n\r\n    mapping(uint256 => Election) private elections;\r\n\r\n    // Events\r\n    event ElectionCreated(uint256 indexed electionId, string name);\r\n    event CandidateAdded(uint256 indexed electionId, uint256 indexed candidateId, string name);\r\n    event Voted(uint256 indexed electionId, address indexed voter, uint256 indexed candidateId);\r\n    event PhaseAdvanced(uint256 indexed electionId, Phase newPhase);\r\n\r\n    modifier onlyOwner() {\r\n        require(msg.sender == owner, \"Only owner\");\r\n        _;\r\n    }\r\n\r\n    modifier electionExists(uint256 _electionId) {\r\n        require(elections[_electionId].exists, \"Election does not exist\");\r\n        _;\r\n    }\r\n\r\n    modifier inPhase(uint256 _electionId, Phase _phase) {\r\n        require(elections[_electionId].phase == _phase, \"Invalid phase for this action\");\r\n        _;\r\n    }\r\n\r\n    constructor() {\r\n        owner = msg.sender;\r\n        electionCount = 0;\r\n    }\r\n\r\n    /// @notice Create a new election\r\n    function createElection(\r\n        string calldata _name,\r\n        string calldata _description,\r\n        uint256 _startTime,\r\n        uint256 _endTime\r\n    ) external onlyOwner returns (uint256) {\r\n        require(_startTime < _endTime, \"Start must be before end\");\r\n\r\n        uint256 id = electionCount;\r\n        Election storage e = elections[id];\r\n        e.id = id;\r\n        e.name = _name;\r\n        e.description = _description;\r\n        e.startTime = _startTime;\r\n        e.endTime = _endTime;\r\n        e.phase = Phase.Registration;\r\n        e.candidateCount = 0;\r\n        e.exists = true;\r\n\r\n        electionCount++;\r\n        emit ElectionCreated(id, _name);\r\n        return id;\r\n    }\r\n\r\n    /// @notice Fetch all elections\r\n    function getAllElections()\r\n        external\r\n        view\r\n        returns (uint256[] memory ids, string[] memory names, uint256[] memory phases)\r\n    {\r\n        ids = new uint256[](electionCount);\r\n        names = new string[](electionCount);\r\n        phases = new uint256[](electionCount);\r\n\r\n        for (uint256 i = 0; i < electionCount; i++) {\r\n            Election storage e = elections[i];\r\n            ids[i] = e.id;\r\n            names[i] = e.name;\r\n            phases[i] = uint256(e.phase);\r\n        }\r\n    }\r\n\r\n    /// @notice Add candidate to an election\r\n    function addCandidate(uint256 _electionId, string calldata _name)\r\n        external\r\n        onlyOwner\r\n        electionExists(_electionId)\r\n        inPhase(_electionId, Phase.Registration)\r\n    {\r\n        Election storage e = elections[_electionId];\r\n        uint256 id = e.candidateCount;\r\n        e.candidates[id] = Candidate({id: id, name: _name, voteCount: 0});\r\n        e.candidateIds.push(id);\r\n        e.candidateCount++;\r\n\r\n        emit CandidateAdded(_electionId, id, _name);\r\n    }\r\n\r\n    /// @notice Advance election phase\r\n    function advancePhase(uint256 _electionId)\r\n        external\r\n        onlyOwner\r\n        electionExists(_electionId)\r\n    {\r\n        Election storage e = elections[_electionId];\r\n        if (e.phase == Phase.Registration) {\r\n            require(e.candidateCount > 0, \"Need at least 1 candidate\");\r\n            e.phase = Phase.Voting;\r\n        } else if (e.phase == Phase.Voting) {\r\n            e.phase = Phase.Ended;\r\n        } else {\r\n            revert(\"Election already ended\");\r\n        }\r\n        emit PhaseAdvanced(_electionId, e.phase);\r\n    }\r\n\r\n    /// @notice Cast vote for a candidate\r\n    function vote(uint256 _electionId, uint256 _candidateId)\r\n        external\r\n        electionExists(_electionId)\r\n        inPhase(_electionId, Phase.Voting)\r\n    {\r\n        Election storage e = elections[_electionId];\r\n        require(!e.hasVoted[msg.sender], \"Already voted\");\r\n        require(_candidateId < e.candidateCount, \"Invalid candidate\");\r\n\r\n        e.hasVoted[msg.sender] = true;\r\n        e.candidates[_candidateId].voteCount++;\r\n\r\n        emit Voted(_electionId, msg.sender, _candidateId);\r\n    }\r\n\r\n    /// @notice Get all candidates of an election\r\n    function getCandidates(uint256 _electionId)\r\n        external\r\n        view\r\n        electionExists(_electionId)\r\n        returns (uint256[] memory ids, string[] memory names, uint256[] memory votes)\r\n    {\r\n        Election storage e = elections[_electionId];\r\n        uint256 len = e.candidateIds.length;\r\n\r\n        ids = new uint256[](len);\r\n        names = new string[](len);\r\n        votes = new uint256[](len);\r\n\r\n        for (uint256 i = 0; i < len; i++) {\r\n            uint256 cid = e.candidateIds[i];\r\n            Candidate storage c = e.candidates[cid];\r\n            ids[i] = c.id;\r\n            names[i] = c.name;\r\n            votes[i] = c.voteCount;\r\n        }\r\n    }\r\n\r\n    /// @notice Get winners of an election\r\n    function getWinners(uint256 _electionId)\r\n        external\r\n        view\r\n        electionExists(_electionId)\r\n        returns (uint256[] memory)\r\n    {\r\n        Election storage e = elections[_electionId];\r\n        require(e.candidateCount > 0, \"No candidates\");\r\n\r\n        uint256 maxVotes = 0;\r\n        for (uint256 i = 0; i < e.candidateIds.length; i++) {\r\n            uint256 cid = e.candidateIds[i];\r\n            if (e.candidates[cid].voteCount > maxVotes) {\r\n                maxVotes = e.candidates[cid].voteCount;\r\n            }\r\n        }\r\n\r\n        uint256 winnerCount = 0;\r\n        for (uint256 i = 0; i < e.candidateIds.length; i++) {\r\n            if (e.candidates[e.candidateIds[i]].voteCount == maxVotes) {\r\n                winnerCount++;\r\n            }\r\n        }\r\n\r\n        uint256[] memory winners = new uint256[](winnerCount);\r\n        uint256 idx = 0;\r\n        for (uint256 i = 0; i < e.candidateIds.length; i++) {\r\n            if (e.candidates[e.candidateIds[i]].voteCount == maxVotes) {\r\n                winners[idx] = e.candidateIds[i];\r\n                idx++;\r\n            }\r\n        }\r\n\r\n        return winners;\r\n    }\r\n}\r\n",
  "sourcePath": "C:\\Users\\Farhan Khan\\DVS-blockchain\\contracts\\DVS.sol",
  "compiler": {
    "name": "solc",
    "version": "0.8.19+commit.7dd6d404.Emscripten.clang"
  },
  "schemaVersion": "3.4.16",
  "updatedAt": "2025-12-04T07:05:20.941Z",
  "networkType": "ethereum",
  "devdoc": {
    "kind": "dev",
    "methods": {},
    "title": "Decentralized Voting System",
    "version": 1
  },
  "userdoc": {
    "kind": "user",
    "methods": {
      "addCandidate(uint256,string)": {
        "notice": "Add candidate to an election"
      },
      "advancePhase(uint256)": {
        "notice": "Advance election phase"
      },
      "createElection(string,string,uint256,uint256)": {
        "notice": "Create a new election"
      },
      "getAllElections()": {
        "notice": "Fetch all elections"
      },
      "getCandidates(uint256)": {
        "notice": "Get all candidates of an election"
      },
      "getWinners(uint256)": {
        "notice": "Get winners of an election"
      },
      "vote(uint256,uint256)": {
        "notice": "Cast vote for a candidate"
      }
    },
    "notice": "Supports multiple elections, candidate registration, voting, and results",
    "version": 1
  }
}